:03000000020800F3
:0C080000787FE4F6D8FD758116020847E9
:1009F500010F9C010900010A00010C00010E000114
:020A05000800E7
:03000B0002095592
:10095500C0E0C0D0E5097003850C0BE509C3950B14
:100965005004D2948009E509D3950B4002C2940541
:1009750009E509C394644003750900E50A70038518
:100985000E0DE50AC3950D5004D2958009E50AD3ED
:10099500950D4002C295050AE50AC39464400375A6
:0709A5000A00D0D0D0E032BF
:10088C008F148C158D16D3E514648094E45024EFEA
:10089C003395E0FE120A158F0CD3E5146480948016
:1008AC004004C290D291C3E514648094805004D269
:1008BC0090C291D3E5169464E5156480948050271A
:1008CC00AF16AE15120A158F0ED3E5169400E5156A
:1008DC00648094804004C292D293C3E515648094E2
:0808EC00805004D292C2932255
:0C0A08007F0F7ECA7D51DDFEDEFADFF6B6
:010A140022BF
:030023000209AC23
:0909AC00C0E0C0D075D000C0000D
:1009B500C2AF30981CC298E599B4FF05750803804D
:1009C50010E508D394004009150874102508F8A609
:0309D50099D2AF05
:0709D800D000D0D0D0E032C6
:1009DF00758920E4F587759850758DFD758BFDD25F
:0609EF008ED2ACD2AF2253
:1008F400758902758C9B758A9BD2AFD2A9D28C1252
:1009040009DFE511C39432400D7D147C007F14127D
:10091400088C7F2C8026E510C39432400D7D287C02
:10092400007F0F12088C7F888012E512C394324036
:10093400107D0F7C007F2812088C7F88120A0880A3
:10094400C17D147C007FEC12088C7F88120A088019
:01095400B1F1
:10080C000208F4E493A3F8E493A34003F68001F206
:10081C0008DFF48029E493A3F85407240CC8C333ED
:10082C00C4540F4420C8834004F456800146F6DFBC
:10083C00E4800B01020408102040809009F5E47E4E
:10084C00019360BCA3FF543F30E509541FFEE493B1
:10085C00A360010ECF54C025E060A840B8E493A378
:10086C00FAE493A3F8E493A3C8C582C8CAC583CAA3
:10087C00F0A3C8C582C8CAC583CADFE9DEE780BE5B
:010A070000EE
:0C0A1500EE30E707C3E49FFFE49EFE22E2
:00000001FF
